{
    "contractName": "Auction",
    "abi": [
        {
            "inputs": [
                {
                    "internalType": "uint8",
                    "name": "_startingPrice",
                    "type": "uint8"
                },
                {
                    "internalType": "uint8",
                    "name": "_minimumStep",
                    "type": "uint8"
                }
            ],
            "stateMutability": "nonpayable",
            "type": "constructor"
        },
        {
            "inputs": [],
            "name": "announce",
            "outputs": [],
            "stateMutability": "nonpayable",
            "type": "function"
        },
        {
            "inputs": [],
            "name": "announcementTimes",
            "outputs": [
                {
                    "internalType": "uint8",
                    "name": "",
                    "type": "uint8"
                }
            ],
            "stateMutability": "view",
            "type": "function"
        },
        {
            "inputs": [],
            "name": "auctioneer",
            "outputs": [
                {
                    "internalType": "address",
                    "name": "",
                    "type": "address"
                }
            ],
            "stateMutability": "view",
            "type": "function"
        },
        {
            "inputs": [
                {
                    "internalType": "uint8",
                    "name": "_price",
                    "type": "uint8"
                }
            ],
            "name": "bid",
            "outputs": [],
            "stateMutability": "nonpayable",
            "type": "function"
        },
        {
            "inputs": [
                {
                    "internalType": "address",
                    "name": "",
                    "type": "address"
                }
            ],
            "name": "bidders",
            "outputs": [
                {
                    "internalType": "uint8",
                    "name": "token",
                    "type": "uint8"
                },
                {
                    "internalType": "uint8",
                    "name": "deposit",
                    "type": "uint8"
                }
            ],
            "stateMutability": "view",
            "type": "function"
        },
        {
            "inputs": [],
            "name": "currentPrice",
            "outputs": [
                {
                    "internalType": "uint8",
                    "name": "",
                    "type": "uint8"
                }
            ],
            "stateMutability": "view",
            "type": "function"
        },
        {
            "inputs": [],
            "name": "currentWinner",
            "outputs": [
                {
                    "internalType": "address",
                    "name": "",
                    "type": "address"
                }
            ],
            "stateMutability": "view",
            "type": "function"
        },
        {
            "inputs": [],
            "name": "getDeposit",
            "outputs": [],
            "stateMutability": "nonpayable",
            "type": "function"
        },
        {
            "inputs": [
                {
                    "internalType": "address",
                    "name": "_account",
                    "type": "address"
                },
                {
                    "internalType": "uint8",
                    "name": "_token",
                    "type": "uint8"
                }
            ],
            "name": "register",
            "outputs": [],
            "stateMutability": "nonpayable",
            "type": "function"
        },
        {
            "inputs": [],
            "name": "rule",
            "outputs": [
                {
                    "internalType": "uint8",
                    "name": "startingPrice",
                    "type": "uint8"
                },
                {
                    "internalType": "uint8",
                    "name": "minimumStep",
                    "type": "uint8"
                }
            ],
            "stateMutability": "view",
            "type": "function"
        },
        {
            "inputs": [],
            "name": "startSession",
            "outputs": [],
            "stateMutability": "nonpayable",
            "type": "function"
        },
        {
            "inputs": [],
            "name": "state",
            "outputs": [
                {
                    "internalType": "enum Auction.State",
                    "name": "",
                    "type": "uint8"
                }
            ],
            "stateMutability": "view",
            "type": "function"
        }
    ],
    "bytecode": "60806040526000805462ffffff191690556003805461ffff60a01b1916905534801561002a57600080fd5b506040516104d23803806104d2833981016040819052610049916100b1565b60038054336001600160a01b03199091161790556001805460ff93841661ffff199091161761010092909316918202929092179091556000805462ff00001916620100009092029190911790556100e4565b805160ff811681146100ac57600080fd5b919050565b600080604083850312156100c457600080fd5b6100cd8361009b565b91506100db6020840161009b565b90509250929050565b6103df806100f36000396000f3fe608060405234801561001057600080fd5b50600436106100b45760003560e01c8063aabe2fe311610071578063aabe2fe314610165578063c19d93fb14610178578063c399ec8814610192578063e4f8c1b61461019a578063fcc8f793146101ac578063fe0ae165146101d857600080fd5b806307e49598146100b957806325e3d522146100cd57806333500e26146101025780635ec2c7bf146101155780638f970df0146100cb5780639d1b464a14610140575b600080fd5b6100cb6100c73660046102e1565b5050565b005b6001546100e39060ff8082169161010090041682565b6040805160ff9384168152929091166020830152015b60405180910390f35b6100cb610110366004610314565b6101e0565b600354610128906001600160a01b031681565b6040516001600160a01b0390911681526020016100f9565b6000546101539062010000900460ff1681565b60405160ff90911681526020016100f9565b600254610128906001600160a01b031681565b6000546101859060ff1681565b6040516100f99190610336565b6100cb610278565b60005461015390610100900460ff1681565b6100e36101ba36600461035e565b60046020526000908152604090205460ff8082169161010090041682565b6100cb6102a1565b3360008181526004602052604090206003805460ff85169190601490610212908490600160a01b900461ffff16610379565b825461ffff9182166101009390930a9283029190920219909116179055505060008054600280546001600160a01b039094166001600160a01b03199094169390931790925561ff001960ff90931662010000029290921662ffff0019909116179055565b565b600354600160a01b900461ffff1661027657600080546003919060ff19166001835b0217905550565b600080546001919060ff1916828061029a565b80356001600160a01b03811681146102cb57600080fd5b919050565b803560ff811681146102cb57600080fd5b600080604083850312156102f457600080fd5b6102fd836102b4565b915061030b602084016102d0565b90509250929050565b60006020828403121561032657600080fd5b61032f826102d0565b9392505050565b602081016004831061035857634e487b7160e01b600052602160045260246000fd5b91905290565b60006020828403121561037057600080fd5b61032f826102b4565b61ffff8181168382160190808211156103a257634e487b7160e01b600052601160045260246000fd5b509291505056fea264697066735822122033626f40ef4c1c5df39bcf5de57222b23cd669f53a32d477520de8c1f7db3c0f64736f6c63430008110033",
    "sourcePath": "/home/nguyen/Documents/HIT_BLOCKCHAIN/hardHat/contracts/Bidder.sol",
    "compiler": {
        "name": "solc",
        "version": "0.8.17+commit.8df45f5f"
    },
    "functionHashes": {
        "announce()": "8f970df0",
        "announcementTimes()": "e4f8c1b6",
        "auctioneer()": "5ec2c7bf",
        "bid(uint8)": "33500e26",
        "bidders(address)": "fcc8f793",
        "currentPrice()": "9d1b464a",
        "currentWinner()": "aabe2fe3",
        "getDeposit()": "c399ec88",
        "register(address,uint8)": "07e49598",
        "rule()": "25e3d522",
        "startSession()": "fe0ae165",
        "state()": "c19d93fb"
    },
    "gasEstimates": {
        "creation": {
            "codeDepositCost": "198200",
            "executionCost": "infinite",
            "totalCost": "infinite"
        },
        "external": {
            "announce()": "209",
            "announcementTimes()": "2390",
            "auctioneer()": "2404",
            "bid(uint8)": "75528",
            "bidders(address)": "2661",
            "currentPrice()": "2435",
            "currentWinner()": "2337",
            "getDeposit()": "26571",
            "register(address,uint8)": "infinite",
            "rule()": "2375",
            "startSession()": "24509",
            "state()": "2373"
        }
    }
}